{
  "_format": "hh-sol-artifact-1",
  "contractName": "Token",
  "sourceName": "contracts/Token.sol",
  "abi": [
    {
      "inputs": [],
      "stateMutability": "nonpayable",
      "type": "constructor"
    },
    {
      "inputs": [
        {
          "internalType": "address",
          "name": "account",
          "type": "address"
        }
      ],
      "name": "balanceOf",
      "outputs": [
        {
          "internalType": "uint256",
          "name": "",
          "type": "uint256"
        }
      ],
      "stateMutability": "view",
      "type": "function"
    },
    {
      "inputs": [],
      "name": "name",
      "outputs": [
        {
          "internalType": "string",
          "name": "",
          "type": "string"
        }
      ],
      "stateMutability": "view",
      "type": "function"
    },
    {
      "inputs": [],
      "name": "owner",
      "outputs": [
        {
          "internalType": "address",
          "name": "",
          "type": "address"
        }
      ],
      "stateMutability": "view",
      "type": "function"
    },
    {
      "inputs": [],
      "name": "symbol",
      "outputs": [
        {
          "internalType": "string",
          "name": "",
          "type": "string"
        }
      ],
      "stateMutability": "view",
      "type": "function"
    },
    {
      "inputs": [
        {
          "internalType": "address",
          "name": "to",
          "type": "address"
        },
        {
          "internalType": "uint256",
          "name": "amount",
          "type": "uint256"
        }
      ],
      "name": "transfer",
      "outputs": [],
      "stateMutability": "nonpayable",
      "type": "function"
    }
  ],
  "bytecode": "0x60806040526040518060400160405280601281526020017f48617264686174205465737420546f6b656e0000000000000000000000000000815250600090816200004a9190620003ad565b506040518060400160405280600381526020017f485454000000000000000000000000000000000000000000000000000000000081525060019081620000919190620003ad565b506103e8600255348015620000a557600080fd5b50600254600460003373ffffffffffffffffffffffffffffffffffffffff1673ffffffffffffffffffffffffffffffffffffffff1681526020019081526020016000208190555033600360006101000a81548173ffffffffffffffffffffffffffffffffffffffff021916908373ffffffffffffffffffffffffffffffffffffffff16021790555062000494565b600081519050919050565b7f4e487b7100000000000000000000000000000000000000000000000000000000600052604160045260246000fd5b7f4e487b7100000000000000000000000000000000000000000000000000000000600052602260045260246000fd5b60006002820490506001821680620001b557607f821691505b602082108103620001cb57620001ca6200016d565b5b50919050565b60008190508160005260206000209050919050565b60006020601f8301049050919050565b600082821b905092915050565b600060088302620002357fffffffffffffffffffffffffffffffffffffffffffffffffffffffffffffffff82620001f6565b620002418683620001f6565b95508019841693508086168417925050509392505050565b6000819050919050565b6000819050919050565b60006200028e62000288620002828462000259565b62000263565b62000259565b9050919050565b6000819050919050565b620002aa836200026d565b620002c2620002b98262000295565b84845462000203565b825550505050565b600090565b620002d9620002ca565b620002e68184846200029f565b505050565b5b818110156200030e5762000302600082620002cf565b600181019050620002ec565b5050565b601f8211156200035d576200032781620001d1565b6200033284620001e6565b8101602085101562000342578190505b6200035a6200035185620001e6565b830182620002eb565b50505b505050565b600082821c905092915050565b6000620003826000198460080262000362565b1980831691505092915050565b60006200039d83836200036f565b9150826002028217905092915050565b620003b88262000133565b67ffffffffffffffff811115620003d457620003d36200013e565b5b620003e082546200019c565b620003ed82828562000312565b600060209050601f83116001811462000425576000841562000410578287015190505b6200041c85826200038f565b8655506200048c565b601f1984166200043586620001d1565b60005b828110156200045f5784890151825560018201915060208501945060208101905062000438565b868310156200047f57848901516200047b601f8916826200036f565b8355505b6001600288020188555050505b505050505050565b61076480620004a46000396000f3fe608060405234801561001057600080fd5b50600436106100575760003560e01c806306fdde031461005c57806370a082311461007a5780638da5cb5b146100aa57806395d89b41146100c8578063a9059cbb146100e6575b600080fd5b610064610102565b604051610071919061044f565b60405180910390f35b610094600480360381019061008f91906104d4565b610190565b6040516100a1919061051a565b60405180910390f35b6100b26101d9565b6040516100bf9190610544565b60405180910390f35b6100d06101ff565b6040516100dd919061044f565b60405180910390f35b61010060048036038101906100fb919061058b565b61028d565b005b6000805461010f906105fa565b80601f016020809104026020016040519081016040528092919081815260200182805461013b906105fa565b80156101885780601f1061015d57610100808354040283529160200191610188565b820191906000526020600020905b81548152906001019060200180831161016b57829003601f168201915b505050505081565b6000600460008373ffffffffffffffffffffffffffffffffffffffff1673ffffffffffffffffffffffffffffffffffffffff168152602001908152602001600020549050919050565b600360009054906101000a900473ffffffffffffffffffffffffffffffffffffffff1681565b6001805461020c906105fa565b80601f0160208091040260200160405190810160405280929190818152602001828054610238906105fa565b80156102855780601f1061025a57610100808354040283529160200191610285565b820191906000526020600020905b81548152906001019060200180831161026857829003601f168201915b505050505081565b80600460003373ffffffffffffffffffffffffffffffffffffffff1673ffffffffffffffffffffffffffffffffffffffff16815260200190815260200160002054101561030f576040517f08c379a000000000000000000000000000000000000000000000000000000000815260040161030690610677565b60405180910390fd5b80600460003373ffffffffffffffffffffffffffffffffffffffff1673ffffffffffffffffffffffffffffffffffffffff168152602001908152602001600020600082825461035e91906106c6565b9250508190555080600460008473ffffffffffffffffffffffffffffffffffffffff1673ffffffffffffffffffffffffffffffffffffffff16815260200190815260200160002060008282546103b491906106fa565b925050819055505050565b600081519050919050565b600082825260208201905092915050565b60005b838110156103f95780820151818401526020810190506103de565b60008484015250505050565b6000601f19601f8301169050919050565b6000610421826103bf565b61042b81856103ca565b935061043b8185602086016103db565b61044481610405565b840191505092915050565b600060208201905081810360008301526104698184610416565b905092915050565b600080fd5b600073ffffffffffffffffffffffffffffffffffffffff82169050919050565b60006104a182610476565b9050919050565b6104b181610496565b81146104bc57600080fd5b50565b6000813590506104ce816104a8565b92915050565b6000602082840312156104ea576104e9610471565b5b60006104f8848285016104bf565b91505092915050565b6000819050919050565b61051481610501565b82525050565b600060208201905061052f600083018461050b565b92915050565b61053e81610496565b82525050565b60006020820190506105596000830184610535565b92915050565b61056881610501565b811461057357600080fd5b50565b6000813590506105858161055f565b92915050565b600080604083850312156105a2576105a1610471565b5b60006105b0858286016104bf565b92505060206105c185828601610576565b9150509250929050565b7f4e487b7100000000000000000000000000000000000000000000000000000000600052602260045260246000fd5b6000600282049050600182168061061257607f821691505b602082108103610625576106246105cb565b5b50919050565b7f4e6f7420456e6f75676820546f6b656e73000000000000000000000000000000600082015250565b60006106616011836103ca565b915061066c8261062b565b602082019050919050565b6000602082019050818103600083015261069081610654565b9050919050565b7f4e487b7100000000000000000000000000000000000000000000000000000000600052601160045260246000fd5b60006106d182610501565b91506106dc83610501565b92508282039050818111156106f4576106f3610697565b5b92915050565b600061070582610501565b915061071083610501565b925082820190508082111561072857610727610697565b5b9291505056fea2646970667358221220250954508501d1c660186349287d749169981a4a2cc97230bdbda081b8f4563764736f6c63430008110033",
  "linkReferences": {},
  "deployedLinkReferences": {}
}